{
  "contractName": "ERC4907Example",
  "abi": [
    {
      "inputs": [
        {
          "internalType": "string",
          "name": "name",
          "type": "string"
        },
        {
          "internalType": "string",
          "name": "symbol",
          "type": "string"
        }
      ],
      "stateMutability": "nonpayable",
      "type": "constructor"
    },
    {
      "anonymous": false,
      "inputs": [
        {
          "indexed": true,
          "internalType": "address",
          "name": "owner",
          "type": "address"
        },
        {
          "indexed": true,
          "internalType": "address",
          "name": "approved",
          "type": "address"
        },
        {
          "indexed": true,
          "internalType": "uint256",
          "name": "tokenId",
          "type": "uint256"
        }
      ],
      "name": "Approval",
      "type": "event"
    },
    {
      "anonymous": false,
      "inputs": [
        {
          "indexed": true,
          "internalType": "address",
          "name": "owner",
          "type": "address"
        },
        {
          "indexed": true,
          "internalType": "address",
          "name": "operator",
          "type": "address"
        },
        {
          "indexed": false,
          "internalType": "bool",
          "name": "approved",
          "type": "bool"
        }
      ],
      "name": "ApprovalForAll",
      "type": "event"
    },
    {
      "anonymous": false,
      "inputs": [
        {
          "indexed": true,
          "internalType": "address",
          "name": "from",
          "type": "address"
        },
        {
          "indexed": true,
          "internalType": "address",
          "name": "to",
          "type": "address"
        },
        {
          "indexed": true,
          "internalType": "uint256",
          "name": "tokenId",
          "type": "uint256"
        }
      ],
      "name": "Transfer",
      "type": "event"
    },
    {
      "anonymous": false,
      "inputs": [
        {
          "indexed": true,
          "internalType": "uint256",
          "name": "tokenId",
          "type": "uint256"
        },
        {
          "indexed": true,
          "internalType": "address",
          "name": "user",
          "type": "address"
        },
        {
          "indexed": false,
          "internalType": "uint64",
          "name": "expires",
          "type": "uint64"
        }
      ],
      "name": "UpdateUser",
      "type": "event"
    },
    {
      "inputs": [
        {
          "internalType": "address",
          "name": "to",
          "type": "address"
        },
        {
          "internalType": "uint256",
          "name": "tokenId",
          "type": "uint256"
        }
      ],
      "name": "approve",
      "outputs": [],
      "stateMutability": "nonpayable",
      "type": "function"
    },
    {
      "inputs": [
        {
          "internalType": "address",
          "name": "owner",
          "type": "address"
        }
      ],
      "name": "balanceOf",
      "outputs": [
        {
          "internalType": "uint256",
          "name": "",
          "type": "uint256"
        }
      ],
      "stateMutability": "view",
      "type": "function",
      "constant": true
    },
    {
      "inputs": [
        {
          "internalType": "uint256",
          "name": "tokenId",
          "type": "uint256"
        }
      ],
      "name": "getApproved",
      "outputs": [
        {
          "internalType": "address",
          "name": "",
          "type": "address"
        }
      ],
      "stateMutability": "view",
      "type": "function",
      "constant": true
    },
    {
      "inputs": [
        {
          "internalType": "address",
          "name": "owner",
          "type": "address"
        },
        {
          "internalType": "address",
          "name": "operator",
          "type": "address"
        }
      ],
      "name": "isApprovedForAll",
      "outputs": [
        {
          "internalType": "bool",
          "name": "",
          "type": "bool"
        }
      ],
      "stateMutability": "view",
      "type": "function",
      "constant": true
    },
    {
      "inputs": [],
      "name": "name",
      "outputs": [
        {
          "internalType": "string",
          "name": "",
          "type": "string"
        }
      ],
      "stateMutability": "view",
      "type": "function",
      "constant": true
    },
    {
      "inputs": [
        {
          "internalType": "uint256",
          "name": "tokenId",
          "type": "uint256"
        }
      ],
      "name": "ownerOf",
      "outputs": [
        {
          "internalType": "address",
          "name": "",
          "type": "address"
        }
      ],
      "stateMutability": "view",
      "type": "function",
      "constant": true
    },
    {
      "inputs": [
        {
          "internalType": "address",
          "name": "from",
          "type": "address"
        },
        {
          "internalType": "address",
          "name": "to",
          "type": "address"
        },
        {
          "internalType": "uint256",
          "name": "tokenId",
          "type": "uint256"
        }
      ],
      "name": "safeTransferFrom",
      "outputs": [],
      "stateMutability": "nonpayable",
      "type": "function"
    },
    {
      "inputs": [
        {
          "internalType": "address",
          "name": "from",
          "type": "address"
        },
        {
          "internalType": "address",
          "name": "to",
          "type": "address"
        },
        {
          "internalType": "uint256",
          "name": "tokenId",
          "type": "uint256"
        },
        {
          "internalType": "bytes",
          "name": "data",
          "type": "bytes"
        }
      ],
      "name": "safeTransferFrom",
      "outputs": [],
      "stateMutability": "nonpayable",
      "type": "function"
    },
    {
      "inputs": [
        {
          "internalType": "address",
          "name": "operator",
          "type": "address"
        },
        {
          "internalType": "bool",
          "name": "approved",
          "type": "bool"
        }
      ],
      "name": "setApprovalForAll",
      "outputs": [],
      "stateMutability": "nonpayable",
      "type": "function"
    },
    {
      "inputs": [
        {
          "internalType": "uint256",
          "name": "tokenId",
          "type": "uint256"
        },
        {
          "internalType": "address",
          "name": "user",
          "type": "address"
        },
        {
          "internalType": "uint64",
          "name": "expires",
          "type": "uint64"
        }
      ],
      "name": "setUser",
      "outputs": [],
      "stateMutability": "nonpayable",
      "type": "function"
    },
    {
      "inputs": [
        {
          "internalType": "bytes4",
          "name": "interfaceId",
          "type": "bytes4"
        }
      ],
      "name": "supportsInterface",
      "outputs": [
        {
          "internalType": "bool",
          "name": "",
          "type": "bool"
        }
      ],
      "stateMutability": "view",
      "type": "function",
      "constant": true
    },
    {
      "inputs": [],
      "name": "symbol",
      "outputs": [
        {
          "internalType": "string",
          "name": "",
          "type": "string"
        }
      ],
      "stateMutability": "view",
      "type": "function",
      "constant": true
    },
    {
      "inputs": [
        {
          "internalType": "uint256",
          "name": "tokenId",
          "type": "uint256"
        }
      ],
      "name": "tokenURI",
      "outputs": [
        {
          "internalType": "string",
          "name": "",
          "type": "string"
        }
      ],
      "stateMutability": "view",
      "type": "function",
      "constant": true
    },
    {
      "inputs": [
        {
          "internalType": "address",
          "name": "from",
          "type": "address"
        },
        {
          "internalType": "address",
          "name": "to",
          "type": "address"
        },
        {
          "internalType": "uint256",
          "name": "tokenId",
          "type": "uint256"
        }
      ],
      "name": "transferFrom",
      "outputs": [],
      "stateMutability": "nonpayable",
      "type": "function"
    },
    {
      "inputs": [
        {
          "internalType": "uint256",
          "name": "tokenId",
          "type": "uint256"
        }
      ],
      "name": "userExpires",
      "outputs": [
        {
          "internalType": "uint256",
          "name": "",
          "type": "uint256"
        }
      ],
      "stateMutability": "view",
      "type": "function",
      "constant": true
    },
    {
      "inputs": [
        {
          "internalType": "uint256",
          "name": "tokenId",
          "type": "uint256"
        }
      ],
      "name": "userOf",
      "outputs": [
        {
          "internalType": "address",
          "name": "",
          "type": "address"
        }
      ],
      "stateMutability": "view",
      "type": "function",
      "constant": true
    },
    {
      "inputs": [
        {
          "internalType": "uint256",
          "name": "tokenId",
          "type": "uint256"
        },
        {
          "internalType": "address",
          "name": "to",
          "type": "address"
        }
      ],
      "name": "mint",
      "outputs": [],
      "stateMutability": "nonpayable",
      "type": "function"
    }
  ],
  "bytecode": "0x60806040523480156200001157600080fd5b5060405162002e7d38038062002e7d8339818101604052810190620000379190620002c6565b8181818181600090805190602001906200005392919062000079565b5080600190805190602001906200006c92919062000079565b50505050505050620003af565b82805462000087906200037a565b90600052602060002090601f016020900481019282620000ab5760008555620000f7565b82601f10620000c657805160ff1916838001178555620000f7565b82800160010185558215620000f7579182015b82811115620000f6578251825591602001919060010190620000d9565b5b5090506200010691906200010a565b5090565b5b80821115620001255760008160009055506001016200010b565b5090565b6000604051905090565b600080fd5b600080fd5b600080fd5b600080fd5b6000601f19601f8301169050919050565b7f4e487b7100000000000000000000000000000000000000000000000000000000600052604160045260246000fd5b620001928262000147565b810181811067ffffffffffffffff82111715620001b457620001b362000158565b5b80604052505050565b6000620001c962000129565b9050620001d7828262000187565b919050565b600067ffffffffffffffff821115620001fa57620001f962000158565b5b620002058262000147565b9050602081019050919050565b60005b838110156200023257808201518184015260208101905062000215565b8381111562000242576000848401525b50505050565b60006200025f6200025984620001dc565b620001bd565b9050828152602081018484840111156200027e576200027d62000142565b5b6200028b84828562000212565b509392505050565b600082601f830112620002ab57620002aa6200013d565b5b8151620002bd84826020860162000248565b91505092915050565b60008060408385031215620002e057620002df62000133565b5b600083015167ffffffffffffffff81111562000301576200030062000138565b5b6200030f8582860162000293565b925050602083015167ffffffffffffffff81111562000333576200033262000138565b5b620003418582860162000293565b9150509250929050565b7f4e487b7100000000000000000000000000000000000000000000000000000000600052602260045260246000fd5b600060028204905060018216806200039357607f821691505b602082108103620003a957620003a86200034b565b5b50919050565b612abe80620003bf6000396000f3fe608060405234801561001057600080fd5b506004361061010b5760003560e01c80638fc88c48116100a2578063b88d4fde11610071578063b88d4fde146102c8578063c2f1f14a146102e4578063c87b56dd14610314578063e030565e14610344578063e985e9c5146103605761010b565b80638fc88c481461024257806394bf804d1461027257806395d89b411461028e578063a22cb465146102ac5761010b565b806323b872dd116100de57806323b872dd146101aa57806342842e0e146101c65780636352211e146101e257806370a08231146102125761010b565b806301ffc9a71461011057806306fdde0314610140578063081812fc1461015e578063095ea7b31461018e575b600080fd5b61012a60048036038101906101259190611a30565b610390565b6040516101379190611a78565b60405180910390f35b61014861040a565b6040516101559190611b2c565b60405180910390f35b61017860048036038101906101739190611b84565b61049c565b6040516101859190611bf2565b60405180910390f35b6101a860048036038101906101a39190611c39565b6104e2565b005b6101c460048036038101906101bf9190611c79565b6105f9565b005b6101e060048036038101906101db9190611c79565b610659565b005b6101fc60048036038101906101f79190611b84565b610679565b6040516102099190611bf2565b60405180910390f35b61022c60048036038101906102279190611ccc565b61072a565b6040516102399190611d08565b60405180910390f35b61025c60048036038101906102579190611b84565b6107e1565b6040516102699190611d08565b60405180910390f35b61028c60048036038101906102879190611d23565b61081f565b005b61029661082d565b6040516102a39190611b2c565b60405180910390f35b6102c660048036038101906102c19190611d8f565b6108bf565b005b6102e260048036038101906102dd9190611f04565b6108d5565b005b6102fe60048036038101906102f99190611b84565b610937565b60405161030b9190611bf2565b60405180910390f35b61032e60048036038101906103299190611b84565b6109bc565b60405161033b9190611b2c565b60405180910390f35b61035e60048036038101906103599190611fc7565b610a24565b005b61037a6004803603810190610375919061201a565b610b47565b6040516103879190611a78565b60405180910390f35b60007fad092b5c000000000000000000000000000000000000000000000000000000007bffffffffffffffffffffffffffffffffffffffffffffffffffffffff1916827bffffffffffffffffffffffffffffffffffffffffffffffffffffffff19161480610403575061040282610bdb565b5b9050919050565b60606000805461041990612089565b80601f016020809104026020016040519081016040528092919081815260200182805461044590612089565b80156104925780601f1061046757610100808354040283529160200191610492565b820191906000526020600020905b81548152906001019060200180831161047557829003601f168201915b5050505050905090565b60006104a782610cbd565b6004600083815260200190815260200160002060009054906101000a900473ffffffffffffffffffffffffffffffffffffffff169050919050565b60006104ed82610679565b90508073ffffffffffffffffffffffffffffffffffffffff168373ffffffffffffffffffffffffffffffffffffffff160361055d576040517f08c379a00000000000000000000000000000000000000000000000000000000081526004016105549061212c565b60405180910390fd5b8073ffffffffffffffffffffffffffffffffffffffff1661057c610d08565b73ffffffffffffffffffffffffffffffffffffffff1614806105ab57506105aa816105a5610d08565b610b47565b5b6105ea576040517f08c379a00000000000000000000000000000000000000000000000000000000081526004016105e1906121be565b60405180910390fd5b6105f48383610d10565b505050565b61060a610604610d08565b82610dc9565b610649576040517f08c379a000000000000000000000000000000000000000000000000000000000815260040161064090612250565b60405180910390fd5b610654838383610e5e565b505050565b610674838383604051806020016040528060008152506108d5565b505050565b6000806002600084815260200190815260200160002060009054906101000a900473ffffffffffffffffffffffffffffffffffffffff169050600073ffffffffffffffffffffffffffffffffffffffff168173ffffffffffffffffffffffffffffffffffffffff1603610721576040517f08c379a0000000000000000000000000000000000000000000000000000000008152600401610718906122bc565b60405180910390fd5b80915050919050565b60008073ffffffffffffffffffffffffffffffffffffffff168273ffffffffffffffffffffffffffffffffffffffff160361079a576040517f08c379a00000000000000000000000000000000000000000000000000000000081526004016107919061234e565b60405180910390fd5b600360008373ffffffffffffffffffffffffffffffffffffffff1673ffffffffffffffffffffffffffffffffffffffff168152602001908152602001600020549050919050565b60006006600083815260200190815260200160002060000160149054906101000a900467ffffffffffffffff1667ffffffffffffffff169050919050565b61082981836110c4565b5050565b60606001805461083c90612089565b80601f016020809104026020016040519081016040528092919081815260200182805461086890612089565b80156108b55780601f1061088a576101008083540402835291602001916108b5565b820191906000526020600020905b81548152906001019060200180831161089857829003601f168201915b5050505050905090565b6108d16108ca610d08565b838361129d565b5050565b6108e66108e0610d08565b83610dc9565b610925576040517f08c379a000000000000000000000000000000000000000000000000000000000815260040161091c90612250565b60405180910390fd5b61093184848484611409565b50505050565b6000426006600084815260200190815260200160002060000160149054906101000a900467ffffffffffffffff1667ffffffffffffffff16106109b2576006600083815260200190815260200160002060000160009054906101000a900473ffffffffffffffffffffffffffffffffffffffff1690506109b7565b600090505b919050565b60606109c782610cbd565b60006109d1611465565b905060008151116109f15760405180602001604052806000815250610a1c565b806109fb8461147c565b604051602001610a0c9291906123aa565b6040516020818303038152906040525b915050919050565b610a2e3384610dc9565b610a6d576040517f08c379a0000000000000000000000000000000000000000000000000000000008152600401610a6490612440565b60405180910390fd5b6000600660008581526020019081526020016000209050828160000160006101000a81548173ffffffffffffffffffffffffffffffffffffffff021916908373ffffffffffffffffffffffffffffffffffffffff160217905550818160000160146101000a81548167ffffffffffffffff021916908367ffffffffffffffff1602179055508273ffffffffffffffffffffffffffffffffffffffff16847f4e06b4e7000e659094299b3533b47b6aa8ad048e95e872d23d1f4ee55af89cfe84604051610b39919061246f565b60405180910390a350505050565b6000600560008473ffffffffffffffffffffffffffffffffffffffff1673ffffffffffffffffffffffffffffffffffffffff16815260200190815260200160002060008373ffffffffffffffffffffffffffffffffffffffff1673ffffffffffffffffffffffffffffffffffffffff16815260200190815260200160002060009054906101000a900460ff16905092915050565b60007f80ac58cd000000000000000000000000000000000000000000000000000000007bffffffffffffffffffffffffffffffffffffffffffffffffffffffff1916827bffffffffffffffffffffffffffffffffffffffffffffffffffffffff19161480610ca657507f5b5e139f000000000000000000000000000000000000000000000000000000007bffffffffffffffffffffffffffffffffffffffffffffffffffffffff1916827bffffffffffffffffffffffffffffffffffffffffffffffffffffffff1916145b80610cb65750610cb5826115dc565b5b9050919050565b610cc681611646565b610d05576040517f08c379a0000000000000000000000000000000000000000000000000000000008152600401610cfc906122bc565b60405180910390fd5b50565b600033905090565b816004600083815260200190815260200160002060006101000a81548173ffffffffffffffffffffffffffffffffffffffff021916908373ffffffffffffffffffffffffffffffffffffffff160217905550808273ffffffffffffffffffffffffffffffffffffffff16610d8383610679565b73ffffffffffffffffffffffffffffffffffffffff167f8c5be1e5ebec7d5bd14f71427d1e84f3dd0314c0f7b2291e5b200ac8c7c3b92560405160405180910390a45050565b600080610dd583610679565b90508073ffffffffffffffffffffffffffffffffffffffff168473ffffffffffffffffffffffffffffffffffffffff161480610e175750610e168185610b47565b5b80610e5557508373ffffffffffffffffffffffffffffffffffffffff16610e3d8461049c565b73ffffffffffffffffffffffffffffffffffffffff16145b91505092915050565b8273ffffffffffffffffffffffffffffffffffffffff16610e7e82610679565b73ffffffffffffffffffffffffffffffffffffffff1614610ed4576040517f08c379a0000000000000000000000000000000000000000000000000000000008152600401610ecb906124fc565b60405180910390fd5b600073ffffffffffffffffffffffffffffffffffffffff168273ffffffffffffffffffffffffffffffffffffffff1603610f43576040517f08c379a0000000000000000000000000000000000000000000000000000000008152600401610f3a9061258e565b60405180910390fd5b610f4e8383836116b2565b610f59600082610d10565b6001600360008573ffffffffffffffffffffffffffffffffffffffff1673ffffffffffffffffffffffffffffffffffffffff1681526020019081526020016000206000828254610fa991906125dd565b925050819055506001600360008473ffffffffffffffffffffffffffffffffffffffff1673ffffffffffffffffffffffffffffffffffffffff16815260200190815260200160002060008282546110009190612611565b92505081905550816002600083815260200190815260200160002060006101000a81548173ffffffffffffffffffffffffffffffffffffffff021916908373ffffffffffffffffffffffffffffffffffffffff160217905550808273ffffffffffffffffffffffffffffffffffffffff168473ffffffffffffffffffffffffffffffffffffffff167fddf252ad1be2c89b69c2b068fc378daa952ba7f163c4a11628f55a4df523b3ef60405160405180910390a46110bf838383611810565b505050565b600073ffffffffffffffffffffffffffffffffffffffff168273ffffffffffffffffffffffffffffffffffffffff1603611133576040517f08c379a000000000000000000000000000000000000000000000000000000000815260040161112a906126b3565b60405180910390fd5b61113c81611646565b1561117c576040517f08c379a00000000000000000000000000000000000000000000000000000000081526004016111739061271f565b60405180910390fd5b611188600083836116b2565b6001600360008473ffffffffffffffffffffffffffffffffffffffff1673ffffffffffffffffffffffffffffffffffffffff16815260200190815260200160002060008282546111d89190612611565b92505081905550816002600083815260200190815260200160002060006101000a81548173ffffffffffffffffffffffffffffffffffffffff021916908373ffffffffffffffffffffffffffffffffffffffff160217905550808273ffffffffffffffffffffffffffffffffffffffff16600073ffffffffffffffffffffffffffffffffffffffff167fddf252ad1be2c89b69c2b068fc378daa952ba7f163c4a11628f55a4df523b3ef60405160405180910390a461129960008383611810565b5050565b8173ffffffffffffffffffffffffffffffffffffffff168373ffffffffffffffffffffffffffffffffffffffff160361130b576040517f08c379a00000000000000000000000000000000000000000000000000000000081526004016113029061278b565b60405180910390fd5b80600560008573ffffffffffffffffffffffffffffffffffffffff1673ffffffffffffffffffffffffffffffffffffffff16815260200190815260200160002060008473ffffffffffffffffffffffffffffffffffffffff1673ffffffffffffffffffffffffffffffffffffffff16815260200190815260200160002060006101000a81548160ff0219169083151502179055508173ffffffffffffffffffffffffffffffffffffffff168373ffffffffffffffffffffffffffffffffffffffff167f17307eab39ab6107e8899845ad3d59bd9653f200f220920489ca2b5937696c31836040516113fc9190611a78565b60405180910390a3505050565b611414848484610e5e565b61142084848484611815565b61145f576040517f08c379a00000000000000000000000000000000000000000000000000000000081526004016114569061281d565b60405180910390fd5b50505050565b606060405180602001604052806000815250905090565b6060600082036114c3576040518060400160405280600181526020017f300000000000000000000000000000000000000000000000000000000000000081525090506115d7565b600082905060005b600082146114f55780806114de9061283d565b915050600a826114ee91906128b4565b91506114cb565b60008167ffffffffffffffff81111561151157611510611dd9565b5b6040519080825280601f01601f1916602001820160405280156115435781602001600182028036833780820191505090505b5090505b600085146115d05760018261155c91906125dd565b9150600a8561156b91906128e5565b60306115779190612611565b60f81b81838151811061158d5761158c612916565b5b60200101907effffffffffffffffffffffffffffffffffffffffffffffffffffffffffffff1916908160001a905350600a856115c991906128b4565b9450611547565b8093505050505b919050565b60007f01ffc9a7000000000000000000000000000000000000000000000000000000007bffffffffffffffffffffffffffffffffffffffffffffffffffffffff1916827bffffffffffffffffffffffffffffffffffffffffffffffffffffffff1916149050919050565b60008073ffffffffffffffffffffffffffffffffffffffff166002600084815260200190815260200160002060009054906101000a900473ffffffffffffffffffffffffffffffffffffffff1673ffffffffffffffffffffffffffffffffffffffff1614159050919050565b6116bd83838361199c565b8173ffffffffffffffffffffffffffffffffffffffff168373ffffffffffffffffffffffffffffffffffffffff161415801561175c5750600073ffffffffffffffffffffffffffffffffffffffff166006600083815260200190815260200160002060000160009054906101000a900473ffffffffffffffffffffffffffffffffffffffff1673ffffffffffffffffffffffffffffffffffffffff1614155b1561180b5760066000828152602001908152602001600020600080820160006101000a81549073ffffffffffffffffffffffffffffffffffffffff02191690556000820160146101000a81549067ffffffffffffffff02191690555050600073ffffffffffffffffffffffffffffffffffffffff16817f4e06b4e7000e659094299b3533b47b6aa8ad048e95e872d23d1f4ee55af89cfe6000604051611802919061298a565b60405180910390a35b505050565b505050565b60006118368473ffffffffffffffffffffffffffffffffffffffff166119a1565b1561198f578373ffffffffffffffffffffffffffffffffffffffff1663150b7a0261185f610d08565b8786866040518563ffffffff1660e01b815260040161188194939291906129fa565b6020604051808303816000875af19250505080156118bd57506040513d601f19601f820116820180604052508101906118ba9190612a5b565b60015b61193f573d80600081146118ed576040519150601f19603f3d011682016040523d82523d6000602084013e6118f2565b606091505b506000815103611937576040517f08c379a000000000000000000000000000000000000000000000000000000000815260040161192e9061281d565b60405180910390fd5b805181602001fd5b63150b7a0260e01b7bffffffffffffffffffffffffffffffffffffffffffffffffffffffff1916817bffffffffffffffffffffffffffffffffffffffffffffffffffffffff191614915050611994565b600190505b949350505050565b505050565b6000808273ffffffffffffffffffffffffffffffffffffffff163b119050919050565b6000604051905090565b600080fd5b600080fd5b60007fffffffff0000000000000000000000000000000000000000000000000000000082169050919050565b611a0d816119d8565b8114611a1857600080fd5b50565b600081359050611a2a81611a04565b92915050565b600060208284031215611a4657611a456119ce565b5b6000611a5484828501611a1b565b91505092915050565b60008115159050919050565b611a7281611a5d565b82525050565b6000602082019050611a8d6000830184611a69565b92915050565b600081519050919050565b600082825260208201905092915050565b60005b83811015611acd578082015181840152602081019050611ab2565b83811115611adc576000848401525b50505050565b6000601f19601f8301169050919050565b6000611afe82611a93565b611b088185611a9e565b9350611b18818560208601611aaf565b611b2181611ae2565b840191505092915050565b60006020820190508181036000830152611b468184611af3565b905092915050565b6000819050919050565b611b6181611b4e565b8114611b6c57600080fd5b50565b600081359050611b7e81611b58565b92915050565b600060208284031215611b9a57611b996119ce565b5b6000611ba884828501611b6f565b91505092915050565b600073ffffffffffffffffffffffffffffffffffffffff82169050919050565b6000611bdc82611bb1565b9050919050565b611bec81611bd1565b82525050565b6000602082019050611c076000830184611be3565b92915050565b611c1681611bd1565b8114611c2157600080fd5b50565b600081359050611c3381611c0d565b92915050565b60008060408385031215611c5057611c4f6119ce565b5b6000611c5e85828601611c24565b9250506020611c6f85828601611b6f565b9150509250929050565b600080600060608486031215611c9257611c916119ce565b5b6000611ca086828701611c24565b9350506020611cb186828701611c24565b9250506040611cc286828701611b6f565b9150509250925092565b600060208284031215611ce257611ce16119ce565b5b6000611cf084828501611c24565b91505092915050565b611d0281611b4e565b82525050565b6000602082019050611d1d6000830184611cf9565b92915050565b60008060408385031215611d3a57611d396119ce565b5b6000611d4885828601611b6f565b9250506020611d5985828601611c24565b9150509250929050565b611d6c81611a5d565b8114611d7757600080fd5b50565b600081359050611d8981611d63565b92915050565b60008060408385031215611da657611da56119ce565b5b6000611db485828601611c24565b9250506020611dc585828601611d7a565b9150509250929050565b600080fd5b600080fd5b7f4e487b7100000000000000000000000000000000000000000000000000000000600052604160045260246000fd5b611e1182611ae2565b810181811067ffffffffffffffff82111715611e3057611e2f611dd9565b5b80604052505050565b6000611e436119c4565b9050611e4f8282611e08565b919050565b600067ffffffffffffffff821115611e6f57611e6e611dd9565b5b611e7882611ae2565b9050602081019050919050565b82818337600083830152505050565b6000611ea7611ea284611e54565b611e39565b905082815260208101848484011115611ec357611ec2611dd4565b5b611ece848285611e85565b509392505050565b600082601f830112611eeb57611eea611dcf565b5b8135611efb848260208601611e94565b91505092915050565b60008060008060808587031215611f1e57611f1d6119ce565b5b6000611f2c87828801611c24565b9450506020611f3d87828801611c24565b9350506040611f4e87828801611b6f565b925050606085013567ffffffffffffffff811115611f6f57611f6e6119d3565b5b611f7b87828801611ed6565b91505092959194509250565b600067ffffffffffffffff82169050919050565b611fa481611f87565b8114611faf57600080fd5b50565b600081359050611fc181611f9b565b92915050565b600080600060608486031215611fe057611fdf6119ce565b5b6000611fee86828701611b6f565b9350506020611fff86828701611c24565b925050604061201086828701611fb2565b9150509250925092565b60008060408385031215612031576120306119ce565b5b600061203f85828601611c24565b925050602061205085828601611c24565b9150509250929050565b7f4e487b7100000000000000000000000000000000000000000000000000000000600052602260045260246000fd5b600060028204905060018216806120a157607f821691505b6020821081036120b4576120b361205a565b5b50919050565b7f4552433732313a20617070726f76616c20746f2063757272656e74206f776e6560008201527f7200000000000000000000000000000000000000000000000000000000000000602082015250565b6000612116602183611a9e565b9150612121826120ba565b604082019050919050565b6000602082019050818103600083015261214581612109565b9050919050565b7f4552433732313a20617070726f76652063616c6c6572206973206e6f7420746f60008201527f6b656e206f776e6572206e6f7220617070726f76656420666f7220616c6c0000602082015250565b60006121a8603e83611a9e565b91506121b38261214c565b604082019050919050565b600060208201905081810360008301526121d78161219b565b9050919050565b7f4552433732313a2063616c6c6572206973206e6f7420746f6b656e206f776e6560008201527f72206e6f7220617070726f766564000000000000000000000000000000000000602082015250565b600061223a602e83611a9e565b9150612245826121de565b604082019050919050565b600060208201905081810360008301526122698161222d565b9050919050565b7f4552433732313a20696e76616c696420746f6b656e2049440000000000000000600082015250565b60006122a6601883611a9e565b91506122b182612270565b602082019050919050565b600060208201905081810360008301526122d581612299565b9050919050565b7f4552433732313a2061646472657373207a65726f206973206e6f74206120766160008201527f6c6964206f776e65720000000000000000000000000000000000000000000000602082015250565b6000612338602983611a9e565b9150612343826122dc565b604082019050919050565b600060208201905081810360008301526123678161232b565b9050919050565b600081905092915050565b600061238482611a93565b61238e818561236e565b935061239e818560208601611aaf565b80840191505092915050565b60006123b68285612379565b91506123c28284612379565b91508190509392505050565b7f455243343930373a207472616e736665722063616c6c6572206973206e6f742060008201527f6f776e6572206e6f7220617070726f7665640000000000000000000000000000602082015250565b600061242a603283611a9e565b9150612435826123ce565b604082019050919050565b600060208201905081810360008301526124598161241d565b9050919050565b61246981611f87565b82525050565b60006020820190506124846000830184612460565b92915050565b7f4552433732313a207472616e736665722066726f6d20696e636f72726563742060008201527f6f776e6572000000000000000000000000000000000000000000000000000000602082015250565b60006124e6602583611a9e565b91506124f18261248a565b604082019050919050565b60006020820190508181036000830152612515816124d9565b9050919050565b7f4552433732313a207472616e7366657220746f20746865207a65726f2061646460008201527f7265737300000000000000000000000000000000000000000000000000000000602082015250565b6000612578602483611a9e565b91506125838261251c565b604082019050919050565b600060208201905081810360008301526125a78161256b565b9050919050565b7f4e487b7100000000000000000000000000000000000000000000000000000000600052601160045260246000fd5b60006125e882611b4e565b91506125f383611b4e565b925082821015612606576126056125ae565b5b828203905092915050565b600061261c82611b4e565b915061262783611b4e565b9250827fffffffffffffffffffffffffffffffffffffffffffffffffffffffffffffffff0382111561265c5761265b6125ae565b5b828201905092915050565b7f4552433732313a206d696e7420746f20746865207a65726f2061646472657373600082015250565b600061269d602083611a9e565b91506126a882612667565b602082019050919050565b600060208201905081810360008301526126cc81612690565b9050919050565b7f4552433732313a20746f6b656e20616c7265616479206d696e74656400000000600082015250565b6000612709601c83611a9e565b9150612714826126d3565b602082019050919050565b60006020820190508181036000830152612738816126fc565b9050919050565b7f4552433732313a20617070726f766520746f2063616c6c657200000000000000600082015250565b6000612775601983611a9e565b91506127808261273f565b602082019050919050565b600060208201905081810360008301526127a481612768565b9050919050565b7f4552433732313a207472616e7366657220746f206e6f6e20455243373231526560008201527f63656976657220696d706c656d656e7465720000000000000000000000000000602082015250565b6000612807603283611a9e565b9150612812826127ab565b604082019050919050565b60006020820190508181036000830152612836816127fa565b9050919050565b600061284882611b4e565b91507fffffffffffffffffffffffffffffffffffffffffffffffffffffffffffffffff820361287a576128796125ae565b5b600182019050919050565b7f4e487b7100000000000000000000000000000000000000000000000000000000600052601260045260246000fd5b60006128bf82611b4e565b91506128ca83611b4e565b9250826128da576128d9612885565b5b828204905092915050565b60006128f082611b4e565b91506128fb83611b4e565b92508261290b5761290a612885565b5b828206905092915050565b7f4e487b7100000000000000000000000000000000000000000000000000000000600052603260045260246000fd5b6000819050919050565b6000819050919050565b600061297461296f61296a84612945565b61294f565b611f87565b9050919050565b61298481612959565b82525050565b600060208201905061299f600083018461297b565b92915050565b600081519050919050565b600082825260208201905092915050565b60006129cc826129a5565b6129d681856129b0565b93506129e6818560208601611aaf565b6129ef81611ae2565b840191505092915050565b6000608082019050612a0f6000830187611be3565b612a1c6020830186611be3565b612a296040830185611cf9565b8181036060830152612a3b81846129c1565b905095945050505050565b600081519050612a5581611a04565b92915050565b600060208284031215612a7157612a706119ce565b5b6000612a7f84828501612a46565b9150509291505056fea2646970667358221220dd30013d2f8b4c91d7e2d2e13c1382a39205ea0f2ba80e2bda5e12e0e3f72c8b64736f6c634300080d0033",
  "immutableReferences": {},
  "source": "// SPDX-License-Identifier: CC0-1.0\npragma solidity ^0.8.0;\n\nimport \"./ERC4907.sol\";\n\ncontract ERC4907Example is ERC4907 {\n\n    constructor(string memory name, string memory symbol)\n     ERC4907(name,symbol)\n     {         \n     }\n\n    function mint(uint256 tokenId, address to) public {\n        _mint(to, tokenId);\n    }\n\n}",
  "sourcePath": "/Users/paul.stinchcombe/Namo Dev/Solidity/ERC4907/contracts/ERC4907Example.sol",
  "compiler": {
    "name": "solc",
    "version": "0.8.13+commit.abaa5c0e.Emscripten.clang"
  },
  "schemaVersion": "3.4.7",
  "updatedAt": "2022-09-16T08:14:33.236Z",
  "networkType": "ethereum",
  "devdoc": {
    "kind": "dev",
    "methods": {
      "approve(address,uint256)": {
        "details": "See {IERC721-approve}."
      },
      "balanceOf(address)": {
        "details": "See {IERC721-balanceOf}."
      },
      "getApproved(uint256)": {
        "details": "See {IERC721-getApproved}."
      },
      "isApprovedForAll(address,address)": {
        "details": "See {IERC721-isApprovedForAll}."
      },
      "name()": {
        "details": "See {IERC721Metadata-name}."
      },
      "ownerOf(uint256)": {
        "details": "See {IERC721-ownerOf}."
      },
      "safeTransferFrom(address,address,uint256)": {
        "details": "See {IERC721-safeTransferFrom}."
      },
      "safeTransferFrom(address,address,uint256,bytes)": {
        "details": "See {IERC721-safeTransferFrom}."
      },
      "setApprovalForAll(address,bool)": {
        "details": "See {IERC721-setApprovalForAll}."
      },
      "setUser(uint256,address,uint64)": {
        "details": "The zero address indicates there is no user Throws if `tokenId` is not valid NFT",
        "params": {
          "expires": "UNIX timestamp, The new user could use the NFT before expires",
          "user": "The new user of the NFT"
        }
      },
      "supportsInterface(bytes4)": {
        "details": "See {IERC165-supportsInterface}."
      },
      "symbol()": {
        "details": "See {IERC721Metadata-symbol}."
      },
      "tokenURI(uint256)": {
        "details": "See {IERC721Metadata-tokenURI}."
      },
      "transferFrom(address,address,uint256)": {
        "details": "See {IERC721-transferFrom}."
      },
      "userExpires(uint256)": {
        "details": "The zero value indicates that there is no user",
        "params": {
          "tokenId": "The NFT to get the user expires for"
        },
        "returns": {
          "_0": "The user expires for this NFT"
        }
      },
      "userOf(uint256)": {
        "details": "The zero address indicates that there is no user or the user is expired",
        "params": {
          "tokenId": "The NFT to get the user address for"
        },
        "returns": {
          "_0": "The user address for this NFT"
        }
      }
    },
    "version": 1
  },
  "userdoc": {
    "events": {
      "UpdateUser(uint256,address,uint64)": {
        "notice": "Emitted when the `user` of an NFT or the `expires` of the `user` is changed The zero address for user indicates that there is no user address"
      }
    },
    "kind": "user",
    "methods": {
      "setUser(uint256,address,uint64)": {
        "notice": "set the user and expires of an NFT"
      },
      "userExpires(uint256)": {
        "notice": "Get the user expires of an NFT"
      },
      "userOf(uint256)": {
        "notice": "Get the user address of an NFT"
      }
    },
    "version": 1
  }
}